:020000040800F2
:1000000000060020E1010008E3010008E301000808
:10001000E3010008E3010008E3010008E301000830
:10002000E3010008E3010008E301000809300008CB
:10003000E3010008E3010008E3010008E301000810
:10004000E3010008E3010008E3010008E301000800
:10005000E3010008E3010008B1320008D9320008CA
:10006000013300082933000851330008E301000878
:10007000E3010008E3010008E3010008E3010008D0
:10008000E3010008E3010008E3010008E3010008C0
:10009000E3010008E3010008E301000879330008E8
:1000A000E3010008E3010008E3010008E3010008A0
:1000B0004D340008E3010008E3010008E3010008F3
:1000C000E3010008E3010008E3010008E301000880
:1000D000E3010008E3010008E3010008E301000870
:1000E000DD330008E3010008E3010008E301000834
:1000F000E3010008E3010008E3010008E301000850
:10010000E3010008E3010008E3010008E30100083F
:10011000E3010008E3010008E3010008E30100082F
:10012000E3010008E3010008E3010008E30100081F
:10013000E3010008E3010008E3010008E30100080F
:10014000E3010008E3010008E3010008BD270008FF
:10015000E3010008E3010008E3010008E3010008EF
:10016000E3010008E3010008E3010008E3010008DF
:10017000E3010008E3010008E3010008E3010008CF
:10018000E3010008E3010008E3010008E3010008BF
:10019000E3010008E3010008E3010008E3010008AF
:1001A000E3010008E3010008E3010008E30100089F
:1001B000E3010008E3010008E3010008E30100088F
:1001C000E3010008E3010008E3010008E30100087F
:1001D000E3010008E3010008E3010008E30100086F
:1001E00002E000F000F8FEE772B6384880F30888B5
:1001F000374880F3098837483749086040F20000E3
:10020000CCF200004EF63471CEF200010860BFF36C
:100210004F8FBFF36F8F40F20000C0F2F0004EF638
:100220008851CEF200010860BFF34F8FBFF36F8F8C
:100230004FF00000E1EE100A4EF63C71CEF20001E4
:100240000860062080F31488BFF36F8F01F09EFFD3
:1002500001F07AFF02F076FE4FF055301F491B4A3D
:1002600091423CBF41F8040BFAE71D49184A9142FC
:100270003CBF41F8040BFAE71A491B4A1B4B9A4250
:100280003EBF51F8040B42F8040BF8E70020184970
:10029000184A91423CBF41F8040BFAE701F058FFBD
:1002A00002F0A4FE144C154DAC4203DA54F8041BC2
:1002B0008847F9E700F042F8114C124DAC4203DADE
:1002C00054F8041B8847F9E701F040BF00060020FE
:1002D000002200200000000808ED00E000000020DF
:1002E00000060020283800080022002040220020BC
:1002F00040220020602E0020E0010008E0010008FC
:10030000E0010008E00100082DE9F04F2DED108A12
:10031000C1F80CD0C3689D46BDEC108ABDE8F08FD3
:10032000002383F311882846A047002001F0A8FA93
:10033000FEE701F011FA00DFFEE7000038B501F03A
:10034000D3FE054601F0F6FE0446D8B90F4B9D4298
:100350001AD001339D4218BF044641F2883504BFCC
:1003600001240025002001F0C9FE0CB100F076F850
:1003700000F012FD00F0A4FB284600F0C3F800F0E6
:100380006DF8F9E70025EDE70546EBE7010007B05A
:1003900008B500F067FBA0F120035842584108BDA2
:1003A00007B541F21203022101A8ADF8043000F0B4
:1003B00077FB03B05DF804FB38B5302383F3118875
:1003C000174803680BB101F027FB164A14480023B5
:1003D0004FF47A7101F016FB002383F31188124C5D
:1003E000236813B12368013B2360636813B163681A
:1003F000013B63600D4D2B7833B963687BB90220F4
:1004000000F03CFC322363602B78032B07D1636838
:100410002BB9022000F032FC4FF47A73636038BDD0
:1004200040220020B9030008602300205822002049
:10043000084B187003280CD8DFE800F00805020804
:10044000022000F00BBC022000F0F8BB024B00229F
:100450005A6070475822002060230020244B254A10
:1004600010B51C461968013140D004339342F9D1CC
:100470006268214B9A4239D9204B9B6803F1006393
:1004800003F580339A4231D2002000F033FB022082
:10049000FFF7CEFF1A4B1A6C00221A64196E1A6607
:1004A000196E596C5A64596E5A665A6E5A6942F0FE
:1004B00080025A615A6922F080025A615A691A69A7
:1004C00042F000521A611A6922F000521A611B6947
:1004D00072B64FF0E0233021C3F8084DD4E9003262
:1004E00081F311889D4683F30888104710BD00BF33
:1004F0000000010820000108FFFF00080022002082
:10050000003802402DE9F04F93B0AA4B0090202212
:10051000FF210AA89D6800F0E9FBA74A1378A3B958
:10052000A648012103601170302383F3118803680A
:100530000BB101F071FAA24AA04800234FF47A717E
:1005400001F060FA002383F31188009B13B19D4BE7
:10055000009A1A609C4A009C1378032B1EBF00234C
:100560001370984A4FF0000A18BF5360D34656469E
:10057000D146012000F072FB24B1924B1B68002B86
:1005800000F01182002000F06DFA0390039B002B15
:10059000F2DB012000F052FB039B213B162BE8D835
:1005A00001A252F823F000BF050600082D0600083E
:1005B000C1060008730500087305000873050008EC
:1005C0004B0700081B0900083508000897080008B9
:1005D000BF080008E508000873050008F7080008D0
:1005E0007305000869090008A506000873050008DE
:1005F000AD09000811060008A506000873050008EB
:10060000970800080220FFF7C3FE002840F0F5819C
:10061000009B0221BAF1000F08BF1C4605A841F259
:100620001233ADF8143000F03BFAA2E74FF47A70C1
:1006300000F018FA071EEBDB0220FFF7A9FE0028E6
:10064000E6D0013F052F00F2DA81DFE807F0030A68
:100650000D10133605230593042105A800F020FA98
:1006600017E054480421F9E758480421F6E75848B0
:100670000421F3E74FF01C08404600F03DFA08F172
:1006800004080590042105A800F00AFAB8F12C0F1F
:10069000F2D1012000FA07F747EA0B0B5FFA8BFB58
:1006A0004FF0000900F06EFB26B10BF00B030B2B93
:1006B00008BF0024FFF774FE5BE746480421CDE73E
:1006C000002EA5D00BF00B030B2BA1D10220FFF7BE
:1006D0005FFE074600289BD0012000F00BFA0220A5
:1006E000FFF7A6FE00265FFA86F8404600F012FAF1
:1006F000044690B10021404600F01CFA0136002863
:10070000F1D1BA46044641F21213022105A8ADF810
:1007100014303E4600F0C4F92BE70120FFF788FEB5
:100720002546244B9B68AB4207D9284600F0E4F9E4
:10073000013040F067810435F3E7234B00251D703D
:10074000204BBA465D603E46ACE7002E3FF460AFFA
:100750000BF00B030B2B7FF45BAF0220FFF768FE5F
:10076000322000F07FF9B0F10008FFF651AF18F029
:1007700003077FF44DAF0F4A926808EB05039342DD
:100780003FF646AFB8F5807F3FF742AF124B01937B
:10079000B84523DD4FF47A7000F064F90390039AB2
:1007A000002AFFF635AF019B039A03F8012B0137AE
:1007B000EDE700BF002200205C2300204022002043
:1007C000B9030008602300205822002004220020E2
:1007D000082200200C2200205C220020C820FFF705
:1007E000D7FD074600283FF413AF1F2D11D8C5F1E0
:1007F000200242450AAB25F0030028BF4246834948
:100800000192184400F04CFA019A8048FF2100F050
:100810006DFA4FEAA8037D490193C8F38702284681
:1008200000F06CFA064600283FF46DAF019B05EB23
:10083000830537E70220FFF7ABFD00283FF4E8AE61
:1008400000F0A4F900283FF4E3AE0027B846704B4F
:100850009B68BB4218D91F2F11D80A9B01330ED0B9
:1008600027F0030312AA134453F8203C0593404693
:10087000042205A900F0BAFA04378046E7E73846B3
:1008800000F03AF90590F2E7CDF81480042105A8AC
:1008900000F006F906E70023642104A8049300F0A1
:1008A000F5F800287FF4B4AE0220FFF771FD0028B0
:1008B0003FF4AEAE049800F051F90590E6E700234E
:1008C000642104A8049300F0E1F800287FF4A0AEAE
:1008D0000220FFF75DFD00283FF49AAE049800F077
:1008E0004DF9EAE70220FFF753FD00283FF490AEF0
:1008F00000F05CF9E1E70220FFF74AFD00283FF431
:1009000087AE05A9142000F057F90421074604908A
:1009100004A800F0C5F83946B9E7322000F0A2F883
:10092000071EFFF675AEBB077FF472AE384A9268B9
:1009300007EB090393423FF66BAE0220FFF728FD59
:1009400000283FF465AE27F003074F44B9453FF454
:10095000A9AE484600F0D0F80421059005A800F0A3
:100960009FF809F10409F1E74FF47A70FFF710FDE1
:1009700000283FF44DAE00F009F9002844D00A9B4E
:1009800001330BD008220AA9002000F0B7F9002893
:100990003AD02022FF210AA800F0A8F9FFF700FDB5
:1009A0001C4800F073FF13B0BDE8F08F002E3FF439
:1009B0002FAE0BF00B030B2B7FF42AAE0023642128
:1009C00005A8059300F062F8074600287FF420AEE2
:1009D0000220FFF7DDFC804600283FF419AEFFF748
:1009E000DFFC41F2883000F051FF059800F0FCF97F
:1009F000464600F0C7F93C46BBE5064652E64FF0D6
:100A0000000905E6BA467EE637467CE65C22002011
:100A100000220020A086010070B50F4B1B78013327
:100A2000DBB2012B0C4611D80C4D29684FF47A73B8
:100A30000E6AA2FB0332014622462846B047844292
:100A400004D1074B00221A70012070BD4FF4FA70D8
:100A500000F01CFF0020F8E71022002008260020EC
:100A60009423002007B50023024601210DF1070061
:100A70008DF80730FFF7D0FF20B19DF8070003B0D5
:100A80005DF804FB4FF0FF30F9E700000A4608B5B7
:100A90000421FFF7C1FF80F00100C0B2404208BD51
:100AA00030B4054C2368DD69044B0A46AC46014668
:100AB000204630BC604700BF08260020A086010009
:100AC00070B501F003FA094E094D30800024286802
:100AD0003388834208D901F0F3F92B6804440133C9
:100AE000B4F5803F2B60F2D370BD00BF9623002089
:100AF0006823002001F0ACBA00F1006000F58030FE
:100B00000068704700F10060920000F5803001F04D
:100B10002BBA0000054B1A68054B1B889B1A8342B1
:100B200002D9104401F0CCB900207047682300209E
:100B30009623002038B5084D044629B12868204482
:100B4000BDE8384001F0DCB92868204401F0C0F964
:100B50000028F3D038BD00BF6823002010F0030345
:100B60000AD1B0F5047F05D200F10050A0F5104085
:100B7000D0F80038184670470023FBE700F100501A
:100B8000A0F51040D0F8100A70470000064991F80F
:100B9000243033B10023086A81F824300822FFF79B
:100BA000B1BF0120704700BF6C230020014B1868C3
:100BB000704700BF002004E0F0B51C4B02461868E7
:100BC0001B4BC0F30B050424000C1E88AE421BD146
:100BD0005C6893F90850174B05261F88874208BFA9
:100BE00093F90250013E03F10403F6D1013A0A449D
:100BF000013C0B4693420ED214F9016F581C66B1AA
:100C000000F8016C0346F5E7013C03F10C03DCD16D
:100C1000094C3F25DFE7184605E02C2490421C7064
:100C200001D2981C5D70401AF0BD00BF002004E0A6
:100C3000303500081C350008F0340008022804D1C3
:100C4000054B4FF080429A6170470128FCD1024B5E
:100C50004FF00052F7E700BF00000240022804D125
:100C6000054B4FF480429A6170470128FCD1024B3A
:100C70004FF40052F7E700BF00000240022805D100
:100C8000064A536983F48043536170470128FCD1BD
:100C9000024A536983F40053F6E700BF00000240A4
:100CA00010B50023934203D0CC5CC4540133F9E760
:100CB00010BD000010B5013810F9013F3BB191F9AA
:100CC00000409C4203D11AB10131013AF4E71AB154
:100CD00091F90020981A10BD1046FCE70346024621
:100CE000D01A12F9011B0029FAD1704702440346B9
:100CF000934202D003F8011BFAE770472DE9F8434D
:100D00001F4D144695F824200746884652BBDFF84D
:100D100070909CB395F824302BB92022FF214846CF
:100D20002F62FFF7E3FF95F82400C0F10802A2420A
:100D300028BF2246D6B24146920005EB8000FFF75D
:100D4000AFFF95F82430A41B1E44F6B2082E1744BA
:100D50009044E4B285F82460DBD1FFF717FF002848
:100D6000D7D108E02B6A03EB82038342CFD0FFF791
:100D70000DFF0028CBD10020BDE8F8830120FBE760
:100D80006C230020024B1A78024B1A70704700BF88
:100D9000942300201022002010B50F4C0F4800F0C3
:100DA000B5F821460D4800F0DDF824680C48626D66
:100DB000D2F8043843F00203C2F8043800F066FDAC
:100DC0000849204600F0D4F9626DD2F8043823F0C7
:100DD0000203C2F8043810BD0C36000808260020B3
:100DE00040420F00143600087047000030B5094D2E
:100DF0000A4491420DD011F8013B5840082340F3BA
:100E00000004013B2C4013F0FF0384EA5000F6D1AC
:100E1000EFE730BD2083B8ED0268436811430160FD
:100E200003B118477047000013B5446BD4F89434ED
:100E30001A681178042915D1217C022912D1197957
:100E4000128901238B4013420CD101A904F14C00FB
:100E500001F034FFD4F89444019B217902462068C4
:100E600000F0D0F902B010BD143001F0B7BE0000A0
:100E70004FF0FF33143001F0B1BE00004C3001F0F0
:100E800089BF00004FF0FF334C3001F083BF0000FA
:100E9000143001F085BE00004FF0FF31143001F036
:100EA0007FBE00004C3001F055BF00004FF0FF3214
:100EB0004C3001F04FBF00000020704710B5D0F853
:100EC00094341A6811780429044617D1017C022948
:100ED00014D15979528901238B4013420ED1143019
:100EE00001F018FE024648B1D4F894444FF48073E0
:100EF00061792068BDE8104000F072B910BD0000B3
:100F0000406BFFF7DBBF0000704700007FB5124B5E
:100F1000036000234360C0E90233012502260F4B22
:100F2000057404460290019300F18402294600965C
:100F30004FF48073143001F0C9FD094B0294CDE9E0
:100F4000006304F523724FF48073294604F14C00CA
:100F500001F090FE04B070BD60350008010F00087C
:100F6000290E00080B68302282F311880A7903EBFE
:100F7000820290614A79093243F822008A7912B1DB
:100F800003EB820398610223C0F8941403740020D9
:100F900080F311887047000038B5037F044613B111
:100FA00090F85430ABB9201D01250221FFF734FF22
:100FB00004F1140025776FF0010100F08FFC84F834
:100FC000545004F14C006FF00101BDE8384000F0CE
:100FD00085BC38BD10B5012104460430FFF71CFF65
:100FE0000023237784F8543010BD000038B5044640
:100FF0000025143001F082FD04F14C00257701F04A
:1010000051FE201D84F854500121FFF705FF2046B2
:10101000BDE83840FFF752BF90F8443003F060035A
:10102000202B07D190F84520212A4FF0000303D848
:101030001F2A06D800207047222AFBD1C0E90E33B0
:1010400003E0034A82630722C263036401207047FE
:101050001122002037B5D0F894341A681178042989
:1010600004461AD1017C022917D11979128901236A
:101070008B40134211D100F14C05284601F0D2FEFD
:1010800058B101A9284601F019FED4F89444019BF7
:1010900021790246206800F0B5F803B030BD0000A9
:1010A000F0B500EB810385B09E6904460D46FEB1A4
:1010B000302383F3118804EB8507301D0821FFF7E7
:1010C000ABFEFB685B691B6806F14C001BB101902D
:1010D00001F002FE019803A901F0F0FD024648B1BB
:1010E000039B2946204600F08DF8002383F31188E6
:1010F00005B0F0BDFB685A691268002AF5D01B8A5A
:10110000013B1340F1D104F14402EAE7093138B55B
:1011100050F82140DCB1302383F31188D4F89424B3
:101120001368527903EB8203DB689B695D6845B104
:1011300004216018FFF770FE294604F1140001F045
:10114000F3FC2046FFF7BAFE002383F3118838BD75
:101150007047000001F052B8012303700023C0E97A
:101160000133C36183620362C362436203637047F6
:1011700038B50446302383F311880025C0E90355B0
:10118000C0E90555416001F049F80223237085F359
:101190001188284638BD000070B500EB8103054674
:1011A0005069DA600E46144618B110220021FFF78C
:1011B0009DFDA06918B110220021FFF797FD31466F
:1011C0002846BDE8704001F0F3B80000826802F0E4
:1011D000011282600022C0E90422826101F074B928
:1011E000F0B400EB81044789E4680125A4698D40CF
:1011F0003D43458123600023A2606360F0BC01F0A1
:101200008FB90000F0B400EB81040789E468012580
:1012100064698D403D43058123600023A2606360C3
:10122000F0BC01F009BA000070B5022300250446A5
:101230000370C0E90255C0E90455C564856180F8B2
:10124000345001F051F863681B6823B129462046E9
:10125000BDE87040184770BD0378052B10B50446F3
:101260000AD080F850300523037043681B680BB127
:10127000042198470023A36010BD000001780529D0
:1012800006D190F85020436802701B6803B11847DC
:101290007047000070B590F83430044613B1002355
:1012A00080F8343004F14402204601F02FF96368DD
:1012B0009B68B3B994F8443013F0600535D0002131
:1012C000204601F0CFFB0021204601F0C1FB6368FE
:1012D0001B6813B1062120469847062384F8343052
:1012E00070BD204698470028E4D0B4F84A30E26B3D
:1012F0009A4288BFE36394F94430E56B002B4FF0CA
:10130000300380F20381002D00F0F280092284F87E
:10131000342083F311880021D4E90E232046FFF7FF
:1013200071FF002383F31188DAE794F8452003F076
:101330007F0343EA022340F20232934200F0C58069
:1013400021D8B3F5807F48D00DD8012B3FD0022B98
:1013500000F09380002BB2D104F14C02A263022270
:10136000E2632364C1E7B3F5817F00F09B80B3F5AE
:10137000407FA4D194F84630012BA0D1B4F84C3072
:1013800043F0020332E0B3F5006F4DD017D8B3F548
:10139000A06F31D0A3F5C063012B90D8636894F897
:1013A00046205E6894F84710B4F848302046B047AD
:1013B000002884D04368A3630368E3631AE0B3F5AD
:1013C000106F36D040F6024293427FF478AF5C4B08
:1013D000A3630223E3630023C3E794F84630012BA1
:1013E0007FF46DAFB4F84C3023F00203C4E90E551E
:1013F000A4F84C30256478E7B4F84430B3F5A06F16
:101400000ED194F8463084F84E30204600F0C4FFE8
:1014100063681B6813B1012120469847032323709A
:101420000023C4E90E339CE704F14F03A3630123B7
:10143000C3E72378042B10D1302383F3118820468F
:10144000FFF7C4FE85F311880321636884F84F50C9
:1014500021701B680BB12046984794F84630002B4A
:10146000DED084F84F300423237063681B68002BA0
:10147000D6D0022120469847D2E794F848301D067E
:1014800003F00F0120460AD501F032F8012804D0FC
:1014900002287FF414AF2B4B9AE72B4B98E701F00F
:1014A00019F8F3E794F84630002B7FF408AF94F86E
:1014B000483013F00F01B3D01A06204602D501F0D0
:1014C000E5FAADE701F0D8FAAAE794F84630002B28
:1014D0007FF4F5AE94F8483013F00F01A0D01B064E
:1014E000204602D501F0BEFA9AE701F0B1FA97E77B
:1014F000142284F8342083F311882B462A46294687
:101500002046FFF76DFE85F31188E9E65DB11522EF
:1015100084F8342083F311880021D4E90E23204677
:10152000FFF75EFEFDE60B2284F8342083F311887A
:101530002B462A4629462046FFF764FEE3E700BF14
:1015400090350008883500088C35000838B590F8CB
:1015500034300446002B3ED0063BDAB20F2A34D892
:101560000F2B32D8DFE803F0373131082232313126
:101570003131313131313737C56BB0F84A309D42A6
:1015800014D2C3681B8AB5FBF3F203FB12556DB985
:10159000302383F311882B462A462946FFF732FE73
:1015A00085F311880A2384F834300EE0142384F87C
:1015B0003430302383F3118800231A46194620461D
:1015C000FFF70EFE002383F3118838BD036C03B1CF
:1015D00098470023E7E70021204601F043FA002165
:1015E000204601F035FA63681B6813B106212046D6
:1015F00098470623D7E7000010B590F83430142B35
:10160000044629D017D8062B05D001D81BB110BD30
:10161000093B022BFBD80021204601F023FA0021D0
:10162000204601F015FA63681B6813B106212046B5
:101630009847062319E0152BE9D10B2380F83430A5
:10164000302383F3118800231A461946FFF7DAFD89
:10165000002383F31188DAE7C3689B695B68002B7A
:10166000D5D1036C03B19847002384F83430CEE71A
:1016700000230375826803691B6899689142FBD255
:101680005A68036042601060586070470023037519
:10169000826803691B6899689142FBD85A680360A5
:1016A000426010605860704708B50846302383F3E5
:1016B00011880B7D032B05D0042B0DD02BB983F3A0
:1016C000118808BD8B6900221A604FF0FF338361D7
:1016D000FFF7CEFF0023F2E7D1E9003213605A6032
:1016E000F3E70000FFF7C4BF054BD9680875186819
:1016F00002681A60536001220275D860FEF704BECA
:101700009823002030B50C4BDD684B1C87B0044695
:101710000FD02B46094A684600F074F92046FFF7BF
:10172000E3FF009B13B1684600F076F9A86907B0A3
:1017300030BDFFF7D9FFF9E798230020A91600086C
:10174000044B1A68DB6890689B68984294BF00203D
:101750000120704798230020084B10B51C68D868FA
:1017600022681A60536001222275DC60FFF78EFF49
:1017700001462046BDE81040FEF7C6BD9823002074
:10178000044B1A68DB6892689B689A4201D9FFF79C
:10179000E3BF70479823002038B5074C0749084835
:1017A000012300252370656001F074FB0223237080
:1017B00085F3118838BD00BF002600209835000849
:1017C0009823002000F05EB9EFF3118020B9EFF309
:1017D0000583302282F311887047000010B530B9BC
:1017E000EFF30584C4F3080414B180F3118810BD2D
:1017F000FFF7C6FF84F31188F9E70000034A516838
:1018000053685B1A9842FBD8704700BF001000E095
:101810008B60022308618B82084670478368A3F1BE
:10182000840243F8142C026943F8442C426943F8BB
:10183000402C094A43F8242CC26843F8182C022291
:1018400003F80C2C002203F80B2C044A43F8102C4C
:10185000A3F12000704700BF210300089823002057
:1018600008B5FFF7DBFFBDE80840FFF73BBF00000E
:10187000024BDB6898610F20FFF736BF98230020EA
:10188000302383F31188FFF7F3BF000008B501464A
:10189000302383F311880820FFF734FF002383F3FC
:1018A000118808BD064BDB6839B1426818605A6080
:1018B000136043600420FFF725BF4FF0FF307047EF
:1018C000982300200368984206D01A68026050608E
:1018D00099611846FFF706BF7047000038B5044607
:1018E0000D462068844200D138BD036823605C60E7
:1018F0008561FFF7F7FEF4E710B503689C68A24224
:101900000CD85C688A600B604C60216059609968F3
:101910008A1A9A604FF0FF33836010BD1B68121B58
:10192000ECE700000A2938BF0A2170B504460D46CD
:101930000A26601901F0A8FA01F094FA041BA542E6
:1019400003D8751C2E460446F3E70A2E04D9BDE8D9
:101950007040012001F0DEBA70BD0000F8B5144BF4
:101960000D46D96103F1100141600A2A19698260AC
:1019700038BF0A22016048601861A818144601F0B7
:1019800075FA0A2701F06EFA431BA342064606D3F6
:101990007C1C281901F078FA27463546F2E70A2F11
:1019A00004D9BDE8F840012001F0B4BAF8BD00BF89
:1019B00098230020F8B506460D4601F053FA0F4A69
:1019C000134653F8107F9F4206D12A4601463046FF
:1019D000BDE8F840FFF7C2BFD169BB68441A2C19B3
:1019E00028BF2C46A34202D92946FFF79BFF224677
:1019F00031460348BDE8F840FFF77EBF982300203A
:101A0000A823002010B4C0E9032300235DF8044B91
:101A10004361FFF7CFBF000010B5194C236998420E
:101A20000DD0D0E90032816813605A609A680A4488
:101A30009A60002303604FF0FF33A36110BD23467B
:101A4000026843F8102F53600022026022699A4214
:101A500003D1BDE8104001F011BA936881680B44CE
:101A6000936001F0FFF92269E1699268441AA24289
:101A7000E4D91144BDE81040091AFFF753BF00BF75
:101A8000982300202DE9F047DFF8BC8008F110070B
:101A90002C4ED8F8105001F0E5F9D8F81C40AA688F
:101AA000031B9A423ED81444D5E900324FF0000996
:101AB000C8F81C4013605A60C5F80090D8F8103080
:101AC000B34201D101F0DAF989F31188D5E9033184
:101AD00028469847302383F311886B69002BD8D0B0
:101AE00001F0C0F96A69A0EB04094A4582460DD2AB
:101AF000022001F00FFA0022D8F81030B34208D1CA
:101B000051462846BDE8F047FFF728BF121A224485
:101B1000F2E712EB090938BF4A4629463846FFF773
:101B2000EBFEB5E7D8F81030B34208D01444211AC0
:101B3000C8F81C00A960BDE8F047FFF7F3BEBDE898
:101B4000F08700BFA82300209823002000207047C2
:101B5000FEE70000704700004FF0FF3070470000C4
:101B600002290CD0032904D00129074818BF0020FE
:101B70007047032A05D8054800EBC20070470448A7
:101B800070470020704700BF7036000820220020F8
:101B90002436000870B59AB00546084601A91446D7
:101BA00000F0C2F801A8FFF799F8431C5B00C5E9F3
:101BB00000340022237003236370C6B201AB0234E9
:101BC0001046D1B28E4204F1020401D81AB070BDA1
:101BD00013F8011B04F8021C04F8010C0132F0E7B1
:101BE00008B5302383F311880348FFF733FA002345
:101BF00083F3118808BD00BF0826002090F8443008
:101C000003F01F02012A07D190F845200B2A03D1C7
:101C10000023C0E90E3315E003F06003202B08D148
:101C2000B0F848302BB990F84520212A03D81F2A54
:101C300004D8FFF7F1B9222AEBD0FAE7034A82630E
:101C40000722C26303640120704700BF18220020EE
:101C500007B5052917D8DFE801F01916031919206F
:101C6000302383F31188104A01900121FFF794FA81
:101C700001980E4A0221FFF78FFA0D48FFF7B6F9D7
:101C8000002383F3118803B05DF804FB302383F352
:101C900011880748FFF780F9F2E7302383F31188B2
:101CA0000348FFF797F9EBE7C4350008E83500086B
:101CB0000826002038B50C4D0C4C0D492A4604F17D
:101CC0000800FFF767FF05F1CA0204F11000094997
:101CD000FFF760FF05F5CA7204F118000649BDE878
:101CE0003840FFF757BF00BFD02A00202022002035
:101CF000A4350008AE350008B935000870B50446B3
:101D000008460D46FEF7EAFFC6B2204601340378C6
:101D10000BB9184670BD32462946FEF7CBFF0028A6
:101D2000F3D10120F6E700002DE9F04705460C4607
:101D3000FEF7D4FF2B49C6B22846FFF7DFFF08B1F4
:101D40000A36F6B228492846FFF7D8FF08B1103600
:101D5000F6B2632E0BD8DFF88C80DFF88C90234F1F
:101D6000DFF894A02E7846B92670BDE8F0872946A2
:101D70002046BDE8F04701F0B3BB252E2ED1072247
:101D800041462846FEF796FF70B9194B224603F1EB
:101D9000100153F8040B42F8040B8B42F9D11B7865
:101DA000137007351134DDE7082249462846FEF74F
:101DB00081FF98B90F4BA21C197809090232C95D3D
:101DC00002F8041C13F8011B01F00F015345C95D13
:101DD00002F8031CF0D118340835C3E704F8016B8E
:101DE0000135BFE790360008B9350008AA3600086B
:101DF00098360008107AFF1F1C7AFF1FBFF34F8F21
:101E0000024AD368DB03FCD4704700BF003C0240A9
:101E100008B5094B1B7873B9FFF7F0FF074B1A6938
:101E2000002ABFBF064A5A6002F188325A601A6817
:101E300022F480621A6008BD2E2D0020003C024072
:101E40002301674508B50B4B1B7893B9FFF7D6FF05
:101E5000094B1A6942F000421A611A6842F4805232
:101E60001A601A6822F480521A601A6842F480627A
:101E70001A6008BD2E2D0020003C02400B28F0B552
:101E800016D80C4C0C4923787BB90C4D0E460C230C
:101E90004FF0006255F8047B46F8042B013B13F029
:101EA000FF033A44F6D10123237051F82000F0BD1E
:101EB0000020FCE7602D0020302D0020BC360008FB
:101EC000014B53F820007047BC3600080C207047C7
:101ED0000B2810B5044601D9002010BDFFF7CEFF36
:101EE000064B53F824301844C21A0BB90120F4E70A
:101EF00012680132F0D1043BF6E700BFBC3600089F
:101F00000B2838B5044628D8FFF75EFCFFF776FFAC
:101F1000FFF77EFF124AF323D360E300DBB243F402
:101F2000007343F002031361136943F480331361B8
:101F300005462046FFF762FFFFF7A0FF094B53F865
:101F4000241000F0E9F82846FFF77CFFFFF746FC75
:101F50002046BDE83840FFF7BBBF002038BD00BFBA
:101F6000003C0240BC36000812F001032DE9F041AC
:101F700005460E4614464BD18218B2F1016F61D866
:101F8000314B1B6813F001035CD0304FFFF71CFC92
:101F9000FFF73EFFF323FB60FFF730FF314640F2CF
:101FA0000128032C18D824F00104284E0C446D1A83
:101FB00040F20118A142336905EB01072AD123F051
:101FC00001033361FFF73EFFFFF708FC0120BDE886
:101FD000F081043C0435E4E7AB07E4D13B6923F42A
:101FE00040733B613B6943EA08033B6151F8046B72
:101FF0002E60BFF34F8FFFF701FF2B689E42E8D0A2
:102000003B6923F001033B61FFF71CFFFFF7E6FB91
:102010000020DCE723F440733361336943EA0803AB
:1020200033610B883B80BFF34F8FFFF7E7FE3F889C
:1020300031F8023BBFB2BB42BCD0336923F001038D
:102040003361E1E71846C2E700380240003C024035
:10205000084908B50B7828B11BB9FFF7D9FE012351
:102060000B7008BD002BFCD0BDE808400870FFF7DE
:10207000E9BE00BF2E2D002010B50244064BD2B29F
:10208000904200D110BD441C00B253F8200041F82A
:10209000040BE0B2F4E700BF502800400F4B30B50E
:1020A0001C6F240407D41C6F44F400741C671C6F5D
:1020B00044F400441C670A4C236843F48073236093
:1020C0000244084BD2B2904200D130BD441C00B251
:1020D00051F8045B43F82050E0B2F4E700380240C6
:1020E000007000405028004007B5012201A90020DF
:1020F000FFF7C2FF019803B05DF804FB13B5044677
:10210000FFF7F2FFA04205D0012201A900200194AF
:10211000FFF7C4FF02B010BD70470000034B1A6800
:102120001AB9034AD2F874281A607047642D002047
:102130000030024008B5FFF7F1FF024B1868C0F30A
:10214000407008BD642D002070470000FEE70000CD
:102150000A4B0B480B4A90420BD30B4BDA1C121A5A
:10216000C11E22F003028B4238BF00220021FEF77D
:10217000BDBD53F8041B40F8041BECE768380008A9
:10218000602E0020602E0020602E0020704700008E
:1021900070B5D0E915439E6800224FF0FF3504EB7F
:1021A00042135101D3F800090028BEBFD3F800093B
:1021B00040F08040C3F80009D3F8000B0028BEBFF0
:1021C000D3F8000B40F08040C3F8000B01326318D5
:1021D0009642C3F80859C3F8085BE0D24FF00113E8
:1021E000C4F81C3870BD0000890141F02001016174
:1021F00003699B06FCD41220FFF700BB10B5054C09
:102200002046FEF7A9FF4FF0A0436365024BA3658C
:1022100010BD00BF682D00201037000870B503788E
:10222000012B054650D12A4B446D98421BD1294BB6
:102230005A6B42F080025A635A6D42F080025A652E
:102240005A6D5A6942F080025A615A6922F080023E
:102250005A610E2143205B6900F022FC1E4BE360B3
:102260001E4BC4F800380023C4F8003EC02323608E
:102270006E6D4FF40413A3633369002BFCDA012362
:1022800033610C20FFF7BAFA3369DB07FCD4122064
:10229000FFF7B4FA3369002BFCDA0026A660284663
:1022A000FFF776FF6B68C4F81068DB68C4F8146841
:1022B000C4F81C684BB90A4BA3614FF0FF3363614C
:1022C000A36843F00103A36070BD064BF4E700BFB1
:1022D000682D002000380240401400400300200216
:1022E000003C30C0083C30C0F8B5446D05460021C4
:1022F0002046FFF779FFA96D00234FF001128F6888
:10230000C4F834384FF00066C4F81C284FF0FF3092
:1023100004EB431201339F42C2F80069C2F8006B1C
:10232000C2F80809C2F8080BF2D20B686A6DEB65B7
:10233000636210231361166916F01006FBD1122098
:10234000FFF75CFAD4F8003823F4FE63C4F80038D1
:10235000A36943F4402343F01003A3610923C4F8A5
:102360001038C4F814380A4BEB604FF0C043C4F87F
:10237000103B084BC4F8003BC4F81069C4F800399E
:10238000EB6D03F1100243F48013EA65A362F8BD1C
:10239000EC36000840800010426D90F84E10D2F8E4
:1023A000003823F4FE6343EA0113C2F80038704793
:1023B0002DE9F84300EB8103456DDA68166806F0F5
:1023C0000306731E022B05EB41130C4680460FFAE1
:1023D00081F94FEA41104FF00001C3F8101B4FF094
:1023E000010104F1100398BFB60401FA03F39169E7
:1023F0008EBF334E06F1805606F5004600293AD0CE
:10240000578A04F15801490137436F50D5F81C1819
:102410000B43C5F81C382B180021C3F81019536959
:102420000127611EA7409BB3138A928B9B08012A48
:1024300088BF5343D8F85C20981842EA034301F15F
:10244000400205EB8202C8F85C0021465360284632
:10245000FFF7CAFE08EB8900C3681B8A43EA84536E
:10246000483464011E432E51D5F81C381F43C5F86B
:102470001C78BDE8F88305EB4917D7F8001B21F459
:102480000041C7F8001BD5F81C1821EA0303C0E778
:1024900004F13F0305EB83030A4A5A6028462146AC
:1024A000FFF7A2FE05EB4910D0F8003923F40043F2
:1024B000C0F80039D5F81C3823EA0707D7E700BF72
:1024C0000080001000040002826D1268C265FFF7F0
:1024D0005FBE00005831436D49015B5813F4004062
:1024E00004D013F4001F0CBF02200120704700002D
:1024F0004831436D49015B5813F4004004D013F494
:10250000001F0CBF022001207047000000EB81017A
:10251000CB68196A0B6813604B6853607047000002
:1025200000EB810330B5DD68AA691368D36019B97F
:10253000402B84BF402313606B8A1468426D1C4497
:10254000013CB4FBF3F46343033323F0030302EBD6
:10255000411043EAC44343F0C043C0F8103B2B682A
:1025600003F00303012B09B20ED1D2F8083802EBB5
:10257000411013F4807FD0F8003B14BF43F0805328
:1025800043F00053C0F8003B02EB4112D2F8003B8D
:1025900043F00443C2F8003B30BD00002DE9F04198
:1025A000244D6E6D06EB40130446D3F8087BC3F848
:1025B000087B38070AD5D6F81438190706D505EB75
:1025C00084032146DB6828465B689847FA071FD5D5
:1025D000D6F81438DB071BD505EB8403D968CCB9D2
:1025E0008B69488A5A68B2FBF0F600FB16228AB95A
:1025F0001868DA6890420DD2121AC3E90024302319
:1026000083F311880B482146FFF78AFF84F3118872
:10261000BDE8F081012303FA04F26B8923EA020387
:102620006B81CB68002BF3D021460248BDE8F04116
:10263000184700BF682D002000EB810370B5DD68EE
:10264000436D6C692668E6604A0156BB1A444FF434
:102650000020C2F810092A6802F00302012A0AB217
:102660000ED1D3F8080803EB421410F4807FD4F89D
:10267000000914BF40F0805040F00050C4F8000939
:1026800003EB4212D2F8000940F00440C2F80009FE
:10269000D3F83408012202FA01F10143C3F83418D7
:1026A00070BD19B9402E84BF4020206020682E8A5A
:1026B0008419013CB4FBF6F440EAC44040F00050F9
:1026C0001A44C6E72DE9F8433B4D6E6D06EB401307
:1026D0000446D3F80889C3F8088918F0010F4FEAB7
:1026E00040171AD0D6F81038DB0716D505EB800353
:1026F000D9684B691868DA68904230D2121A4FF0E4
:1027000000091A60C3F80490302383F3118821462E
:102710002846FFF791FF89F3118818F0800F1CD02D
:10272000D6F834380126A640334216D005EB840390
:102730006D6DD3F80CC0DCF814200134E4B2D2F88B
:1027400000E005EB04342F445168714515D3D5F8EA
:10275000343823EA0606C5F83468BDE8F883012357
:1027600003FA04F22B8923EA02032B818B68002BE6
:10277000D3D0214628469847CFE7BCF81000AEEBEF
:102780000103834228BF0346D7F8180980B2B3EB90
:10279000800FE2D89068A0F1040959F8048FC4F8BA
:1027A0000080A0EB09089844B8F1040FF5D818444C
:1027B0000B4490605360C7E7682D00202DE9F74F68
:1027C000A24C656D6E69AB691E4016F480586E614F
:1027D00007D02046FEF728FD03B0BDE8F04F00F01B
:1027E00047BC002E12DAD5F8003E98489B071EBF62
:1027F000D5F8003E23F00303C5F8003ED5F80438B1
:1028000023F00103C5F80438FEF738FD370505D578
:102810008E48FFF7BDFC8D48FEF71EFDB0040CD5B9
:10282000D5F8083813F0060FEB6823F470530CBF8B
:1028300043F4105343F4A053EB6031071BD5636896
:10284000DB681BB9AB6923F00803AB612378052B68
:102850000CD1D5F8003E7D489A071EBFD5F8003E42
:1028600023F00303C5F8003EFEF708FD6368DB684C
:102870000BB176489847F30274D4B70227D5D4F841
:102880005490DFF8C8B100274FF0010A09EB471256
:10289000D2F8003B03F44023B3F5802F11D1D2F8D6
:1028A000003B002B0DDA62890AFA07F322EA0303E0
:1028B000638104EB8703DB68DB6813B13946584654
:1028C0009847A36D01379B68FFB29F42DED9F0069F
:1028D00017D5676D3A6AC2F30A1002F00F0302F4CB
:1028E000F012B2F5802F00F08580B2F5402F08D1AC
:1028F00004EB83030022DB681B6A07F580579042D4
:102900006AD13003D5F8184813D5E10302D5002069
:10291000FFF744FEA20302D50120FFF73FFE630349
:1029200002D50220FFF73AFE270302D50320FFF766
:1029300035FE75037FF550AFE00702D50020FFF7A5
:10294000C1FEA10702D50120FFF7BCFE620702D538
:102950000220FFF7B7FE23077FF53EAF0320FFF706
:10296000B1FE39E7636DDFF8E4A0019300274FF073
:102970000109A36D9B685FFA87FB9B453FF67DAF1E
:10298000019B03EB4B13D3F8001901F44021B1F57F
:10299000802F1FD1D3F8001900291BDAD3F80019B2
:1029A00041F09041C3F80019D3F800190029FBDB6E
:1029B0005946606DFFF718FC218909FA0BF321EAEB
:1029C0000303238104EB8B03DB689B6813B1594637
:1029D000504698470137CCE7910708BFD7F80080E9
:1029E000072A98BF03F8018B02F1010298BF4FEA52
:1029F000182884E7023304EB830207F580575268F6
:102A0000D2F818C0DCF80820DCE9001CA1EB0C0CA3
:102A1000002188420AD104EB830463689B699A68A9
:102A200002449A605A6802445A606AE711F0030F40
:102A300008BFD7F800808C4588BF02F8018B01F1F0
:102A4000010188BF4FEA1828E3E700BF682D002086
:102A5000436D03EB4111D1F8003B43F40013C1F87F
:102A6000003B7047436D03EB4111D1F8003943F44B
:102A70000013C1F800397047436D03EB4111D1F8E1
:102A8000003B23F40013C1F8003B7047436D03EB98
:102A90004111D1F8003923F40013C1F8003970470F
:102AA00000F1604303F561430901C9B283F80013E3
:102AB000012200F01F039A4043099B0003F1604389
:102AC00003F56143C3F880211A60704730B5039C59
:102AD0000172043304FB0325C0E90653049B03631E
:102AE0000021059BC160C0E90000C0E90422C0E9E3
:102AF0000842C0E90A11436330BD0000416A002268
:102B0000C0E90411C0E90A22C2606FF00101FEF7BA
:102B1000E5BE0000D0E90432934201D1C2680AB98F
:102B2000181D70470020704703691960C2680132A0
:102B3000C260C269134482690361934224BF436A3D
:102B400003610021FEF7BEBE38B504460D46E368BA
:102B50003BB16269131D1268A3621344E362002053
:102B600007E0237A33B929462046FEF79BFE00286A
:102B7000EDDA38BD6FF00100FBE70000C368C26901
:102B8000013BC3604369134482694361934224BF9C
:102B9000436A436100238362036B03B118477047A4
:102BA00070B53023044683F31188866A3EB9FFF777
:102BB000CBFF054618B186F31188284670BDA36A7D
:102BC000E26A13F8015BA362934202D32046FFF747
:102BD000D5FF002383F31188EFE700002DE9F84FBC
:102BE00004460E46174698464FF0300989F311887F
:102BF0000025AA46D4F828B0BBF1000F09D1414600
:102C00002046FFF7A1FF20B18BF311882846BDE8CD
:102C1000F88FD4E90A12A7EB050B521A934528BF87
:102C20009346BBF1400F1BD9334601F1400251F8E6
:102C3000040B43F8040B9142F9D1A36A40334036A8
:102C4000A3624035D4E90A239A4202D32046FFF713
:102C500095FF8AF31188BD42D8D289F31188C9E75C
:102C600030465A46FEF71CF8A36A5B445E44A362F2
:102C70005D44E7E710B5029C0172043303FB0421B5
:102C8000C0E906130023C0E90A33039B0363049BD6
:102C9000C460C0E90000C0E90422C0E908424363FF
:102CA00010BD0000026AC260426AC0E9042200222C
:102CB000C0E90A226FF00101FEF710BED0E904233B
:102CC0009A4201D1C26822B9184650F8043B0B6001
:102CD000704700231846FAE7C368C2690133C3602E
:102CE0004369134482694361934224BF436A436149
:102CF0000021FEF7E7BD000038B504460D46E36845
:102D00003BB123691A1DA262E2691344E362002009
:102D100007E0237A33B929462046FEF7C3FD002891
:102D2000EDDA38BD6FF00100FBE7000003691960C0
:102D3000C268013AC260C269134482690361934266
:102D400024BF436A036100238362036B03B1184706
:102D50007047000070B530230D460446114683F3DA
:102D60001188866A2EB9FFF7C7FF10B186F3118864
:102D700070BDA36A1D70A36AE26A01339342A36225
:102D800004D3E16920460439FFF7D0FF002080F327
:102D90001188EDE72DE9F84F04460D469046994617
:102DA0004FF0300A8AF311880026B346A76A4FB95C
:102DB00049462046FFF7A0FF20B187F3118830462F
:102DC000BDE8F88FD4E90A073A1AA8EB060797423C
:102DD00028BF1746402F1BD905F1400355F8042B97
:102DE00040F8042B9D42F9D1A36A4033A3624036D8
:102DF000D4E90A239A4204D3E16920460439FFF753
:102E000095FF8BF311884645D9D28AF31188CDE717
:102E100029463A46FDF744FFA36A3B443D44A3627A
:102E20003E44E5E7D0E904239A4217D1C3689BB139
:102E3000836A8BB1043B9B1A0ED01360C368013BBD
:102E4000C360C3691A44836902619A4224BF436A1A
:102E50000361002383620123184670470023FBE7C8
:102E600000F030B94FF08043586A70474FF080430C
:102E7000002258631A610222DA6070474FF08043E3
:102E80000022DA60704700004FF0804358637047BB
:102E9000FEE7000070B51B4B01630025044686B0B9
:102EA000586085620E4600F0BFF804F11003C4E9D3
:102EB00004334FF0FF33C4E90635C4E90044A5608C
:102EC000E562FFF7CFFF2B460246C4E9082304F171
:102ED00034010D4A256580232046FEF799FC012325
:102EE000E0600A4A0375009272680192B268CDE907
:102EF0000223074B6846CDE90435FEF7B1FC06B066
:102F000070BD00BF002600201C37000821370008D4
:102F1000912E0008024AD36A1843D062704700BF5E
:102F2000982300204B6843608B688360CB68C36044
:102F30000B6943614B6903628B6943620B680360F1
:102F40007047000008B5264B26481A6940F2FF1169
:102F50000A431A611A6922F4FF7222F001021A610F
:102F60001A691A6B0A431A631A6D0A431A651E4AD4
:102F70001B6D1146FFF7D6FF02F11C0100F58060C2
:102F8000FFF7D0FF02F1380100F58060FFF7CAFFBC
:102F900002F1540100F58060FFF7C4FF02F17001F7
:102FA00000F58060FFF7BEFF02F18C0100F5806044
:102FB000FFF7B8FF02F1A80100F58060FFF7B2FF4C
:102FC00002F1C40100F58060FFF7ACFF02F1E001FF
:102FD00000F58060FFF7A6FFBDE8084000F0EEB8FE
:102FE00000380240000002402837000808B500F011
:102FF00059FAFEF7D1FBFFF791F8BDE80840FEF75C
:1030000059BE000070470000EFF3098305494A6B81
:1030100022F001024A63683383F30988002383F3B3
:103020001188704700EF00E0302080F3118862B60D
:103030000C4B0D4AD96821F4E0610904090C0A43DC
:10304000DA60D3F8FC20094942F08072C3F8FC2012
:103050000A6842F001020A602022DA7783F822002F
:10306000704700BF00ED00E00003FA05001000E02B
:1030700010B5302383F311880E4B5B6813F40063A3
:1030800014D0F1EE103AEFF30984683C4FF08073EE
:10309000E361094BDB6B236684F30988FEF750FB81
:1030A00010B1064BA36110BD054BFBE783F31188FC
:1030B000F9E700BF00ED00E000EF00E03303000897
:1030C000360300080F4B1A6C42F001021A641A6EA4
:1030D00042F001021A660C4A1B6E936843F001032A
:1030E00093604FF0804353229A624FF0FF32DA62CE
:1030F00000229A615A63DA605A6001225A611A60AA
:10310000704700BF00380240002004E04FF08042CA
:1031100008B51169D3680B40D9B2C9439B07116147
:1031200007D5302383F31188FEF74CFB002383F38C
:10313000118808BD1F4B1A696FEAC2526FEAD2525A
:103140001A611A69C2F308021A614FF0FF301A6956
:103150005A69586100215A6959615A691A6A62F0BC
:1031600080521A621A6A02F080521A621A6A5A6A05
:1031700058625A6A59625A6A1A6C42F080521A644A
:103180001A6E42F080521A661A6E0B4A106840F4AA
:1031900080701060186F00F44070B0F5007F1EBFA3
:1031A0004FF4803018671967536823F40073536035
:1031B00000F054B90038024000700040334B4FF02B
:1031C00080521A64324A4FF4404111601A6842F04A
:1031D00001021A601A689107FCD59A6822F003026E
:1031E0009A602A4B9A6812F00C02FBD1196801F020
:1031F000F90119609A601A6842F480321A601A68FC
:103200009203FCD55A6F42F001025A671F4B5A6F66
:103210009007FCD51F4A5A601A6842F080721A6003
:103220001B4A53685904FCD5184B1A689201FCD507
:10323000194A9A60194B1A68194B9A42194B21D1B5
:10324000194A1168194A91421CD140F205121A60BC
:10325000144A136803F00F03052BFAD10B4B9A683D
:1032600042F002029A609A6802F00C02082AFAD12F
:103270005A6C42F480425A645A6E42F480425A6652
:103280005B6E704740F20572E1E700BF0038024014
:10329000007000400854400700948838002004E083
:1032A00011640020003C024000ED00E041C20F41EB
:1032B000074A08B5536903F00103536123B1054A76
:1032C00013680BB150689847BDE80840FFF7D0BEBF
:1032D000003C0140E02D0020074A08B5536903F087
:1032E0000203536123B1054A93680BB1D068984734
:1032F000BDE80840FFF7BCBE003C0140E02D0020C7
:10330000074A08B5536903F00403536123B1054A22
:1033100013690BB150699847BDE80840FFF7A8BE94
:10332000003C0140E02D0020074A08B5536903F036
:103330000803536123B1054A93690BB1D0699847DB
:10334000BDE80840FFF794BE003C0140E02D00209E
:10335000074A08B5536903F01003536123B1054AC6
:10336000136A0BB1506A9847BDE80840FFF780BE6A
:10337000003C0140E02D0020164B10B55C6904F4C0
:1033800078725A61A30604D5134A936A0BB1D06AC6
:103390009847600604D5104A136B0BB1506B9847E1
:1033A000210604D50C4A936B0BB1D06B9847E2050C
:1033B00004D5094A136C0BB1506C9847A30504D58A
:1033C000054A936C0BB1D06C9847BDE81040FFF7ED
:1033D0004FBE00BF003C0140E02D0020194B10B54E
:1033E0005C6904F47C425A61620504D5164A136D87
:1033F0000BB1506D9847230504D5134A936D0BB15B
:10340000D06D9847E00404D50F4A136E0BB1506E8F
:103410009847A10404D50C4A936E0BB1D06E98471F
:10342000620404D5084A136F0BB1506F9847230408
:1034300004D5054A936F0BB1D06F9847BDE8104093
:10344000FFF716BE003C0140E02D002008B5FFF755
:103450005DFEBDE80840FFF70BBE0000062108B581
:103460000846FFF71DFB06210720FFF719FB062181
:103470000820FFF715FB06210920FFF711FB0621A5
:103480000A20FFF70DFB06211720FFF709FB062195
:103490002820FFF705FBBDE8084007211C20FFF7A7
:1034A000FFBA000008B5FFF745FE00F00BF8FDF786
:1034B00051FEFDF729FDFFF7A5FDBDE80840FFF728
:1034C000CFBC00000023054A19460133102BC2E986
:1034D000001102F10802F8D1704700BFE02D002072
:1034E000034611F8012B03F8012B002AF9D170478C
:1034F00053544D3332463F3F3F00000053544D3349
:1035000032463430780053544D33324634327800EA
:1035100053544D333246343436585800012033006A
:103520000010410001105A0003105900071031002B
:1035300000000000F03400083F0000001304000009
:10354000FC3400083F0000001904000006350008A4
:103550003F00000021040000103500083F0000007B
:1035600000000000850E0008710E0008AD0E000876
:10357000990E0008A50E0008910E00087D0E0008A7
:10358000690E0008B90E00080000000001000000EC
:10359000000000006330000094350008F023002094
:1035A000002600204172647550696C6F74002542DA
:1035B0004F415244252D424C002553455249414C20
:1035C000250000000200000000000000A11000081B
:1035D0000D11000840004000A02A0020B02A002061
:1035E00002000000000000000300000000000000D6
:1035F000511100080000000010000000C02A002047
:10360000000000000100000000000000682D002004
:1036100001010200511C0008611B0008FD1B00088D
:10362000E11B0008430000002C360008090243009B
:10363000020100C032090400000102020100052459
:1036400000100105240100010424020205240600E3
:1036500001070582030800FF09040100020A0000B7
:10366000000705010240000007058102400000003C
:10367000120000007836000812011001020000401C
:10368000091241570002010203010000040309046A
:1036900025424F4152442500537065656479426567
:1036A000654634303557494E470030313233343572
:1036B0003637383941424344454600000040000057
:1036C0000040000000400000004000000000010039
:1036D00000000200000002000000020000000200E2
:1036E00000000200000002000000020000000000D4
:1036F000951200084D150008F9150008400040001B
:10370000C82D0020C82D002001000000D82D002069
:103710008000000040010000030000006D61696E40
:103720000069646C65000000000180160000000064
:10373000AAAAAAAA00010000FF9F00000000000042
:1037400000A00A000000000100000000AAAAAAAA26
:1037500000000001FFFF000000000000000000006A
:103760000000001000000000AAAAAAAA0000001091
:10377000FFFF00000000000000000000000000004B
:1037800000000000AAAAAAAA00000000FFFF000093
:103790000000000000000000000000000000000029
:1037A000AAAAAAAA00000000FFFF00000000000073
:1037B000000000000000000000000000AAAAAAAA61
:1037C00000000000FFFF00000000000000000000FB
:1037D0000000000000000000AAAAAAAA0000000041
:1037E000FFFF0000000000000000000000000000DB
:1037F000000000000A0000000000000003000000BC
:1038000000000000000000000000000000000000B8
:1038100000000000000000000000000000000000A8
:103820000000000000000000520400000000000042
:1038300000000F0000000000FF00960000000008DC
:103840000096000000000800040000008C3600080C
:103850000000000000000000000000000000000068
:103860000000000000000000FFFFFFFFFFFFFFFF60
:10387000FFFFFFFFFFFFFFFFFFFFFFFFFFFFFFFF58
:10388000FFFFFFFFFFFFFFFFFFFFFFFFFFFFFFFF48
:10389000FFFFFFFFFFFFFFFFFFFFFFFFFFFFFFFF38
:1038A000FFFFFFFFFFFFFFFFFFFFFFFFFFFFFFFF28
:020000040801F1
:100000000006002099120108ED6B0A08496B0A08E6
:10001000B56B0A08496B0A08816B0A089B12010834
:100020009B1201089B1201089B120108F9BF0C08E2
:100030009B1201089B1201089B1201089B120108E8
:100040009B1201089B1201089B1201089B120108D8
:100050009B1201089B12010891CB0C08B9CB0C082C
:10006000E1CB0C0809CC0C0831CC0C084D6E0C0807
:10007000756E0C08A16E0C08CD6E0C08F96E0C089C
:10008000216F0C084D6F0C08D16D0C089B120108F4
:100090009B1201089B1201089B12010859CC0C0805
:1000A000A5CD0C08B9CD0C08CDCD0C08D1CD0C08D0
:1000B000D5CD0C08E9CD0C08FDCD0C08D9740C0881
:1000C00081760C089B1201089B1201089B12010803
:1000D0009B1201082DCD0C0841CD0C0855CD0C0804
:1000E000BDCC0C089B1201089B12010821CE0C0804
:1000F00025CE0C0839CE0C083DCE0C08796F0C08C3
:100100009B1201089B12010811CE0C089B120108DA
:1001100069CD0C087DCD0C089B1201089B120108CB
:10012000A56F0C08CD6F0C08F96F0C0825700C0832
:1001300051700C089B1201089B1201089B120108C8
:100140009B1201089B1201089B12010825C70C088D
:1001500079700C08A5700C08D1700C0891CD0C08B2
:100160009B1201089B1201089B1201089B120108B7
:100170009B1201089B1201089B1201089B120108A7
:100180009B1201089B1201089B1201089B12010897
:100190009B1201089B1201089B1201089B12010887
:1001A0009B1201089B1201089B1201089B12010877
:1001B0009B1201089B1201089B1201089B12010867
:1001C0009B1201089B1201089B1201089B12010857
:1001D0009B1201089B1201089B1201089B12010847
:1001E00035660108F54F03083DD00408D5590608C7
:1001F000F95F0608D99B0608A5F60608D5FF06088C
:100200001D030708B16E07086973070859970708A7
:10021000854E080841A20808FDAE0808E15C0A08FE
:100220006D620A0891AC0B0891D30B0869EA0B08C0
:10023000B9190C08E51F0C080000000000000000C0
:1002400081F0004102E000BF83F0004330B54FEA87
:1002500041044FEA430594EA050F08BF90EA020FF4
:100260001FBF54EA000C55EA020C7FEA645C7FEA87
:10027000655C00F0E2804FEA5454D4EB5555B8BFAA
:100280006D420CDD2C4480EA020281EA030382EA1B
:10029000000083EA010180EA020281EA0303362DAD
:1002A00088BF30BD11F0004F4FEA01314FF4801C80
:1002B0004CEA113102D0404261EB410113F0004F92
:1002C0004FEA03334CEA133302D0524263EB430349
:1002D00094EA050F00F0A780A4F10104D5F1200EE7
:1002E0000DDB02FA0EFC22FA05F2801841F1000142
:1002F00003FA0EF2801843FA05F359410EE0A5F116
:1003000020050EF1200E012A03FA0EFC28BF4CF046
:10031000020C43FA05F3C01851EBE37101F00045FC
:1003200007D54FF0000EDCF1000C7EEB00006EEB09
:100330000101B1F5801F1BD3B1F5001F0CD3490893
:100340005FEA30004FEA3C0C04F101044FEA4452EA
:1003500012F5800F80F09A80BCF1004F08BF5FEA71
:10036000500C50F1000041EB045141EA050130BD51
:100370005FEA4C0C404141EB0101013C28BFB1F563
:10038000801FE9D291F0000F04BF01460020B1FAAE
:1003900081F308BF2033A3F10B03B3F120020CDA81
:1003A0000C3208DD02F1140CC2F10C0201FA0CF05F
:1003B00021FA02F10CE002F11402D8BFC2F1200CC4
:1003C00001FA02F120FA0CFCDCBF41EA0C0190407A
:1003D000E41AA2BF01EB0451294330BD6FEA0404C3
:1003E0001F3C1CDA0C340EDC04F11404C4F12002AE
:1003F00020FA04F001FA02F340EA030021FA04F3C0
:1004000045EA030130BDC4F10C04C4F1200220FA16
:1004100002F001FA04F340EA0300294630BD21FA54
:1004200004F0294630BD94F0000F83F4801306BF1A
:1004300081F480110134013D4EE77FEA645C18BF0E
:100440007FEA655C29D094EA050F08BF90EA020FA5
:1004500005D054EA000C04BF1946104630BD91EA9D
:10046000030F1EBF0021002030BD5FEA545C05D1A0
:100470004000494128BF41F0004130BD14F58004DF
:100480003CBF01F5801130BD01F0004545F0FE4153
:1004900041F470014FF0000030BD7FEA645C1ABF88
:1004A000194610467FEA655C1CBF0B46024650EABF
:1004B000013406BF52EA033591EA030F41F40021EB
:1004C00030BD00BF90F0000F04BF0021704730B571
:1004D0004FF4806404F132044FF000054FF0000146
:1004E00050E700BF90F0000F04BF0021704730B507
:1004F0004FF4806404F1320410F0004548BF4042DC
:100500004FF000013EE700BF42004FEAE2014FEA30
:1005100031014FEA02701FBF12F07F4393F07F4F0B
:1005200081F06051704732F07F4208BF704793F00E
:100530007F4F04BF41F40021704730B54FF4607421
:1005400001F0004521F000411CE700BF50EA010224
:1005500008BF704730B54FF000050AE050EA0102CD
:1005600008BF704730B511F0004502D5404261EB3D
:1005700041014FF4806404F132045FEA915C3FF47E
:10058000D8AE4FF003025FEADC0C18BF03325FEA1B
:10059000DC0C18BF033202EBDC02C2F1200300FACC
:1005A00003FC20FA02F001FA03FE40EA0E0021FAF1
:1005B00002F11444BDE600BF70B54FF0FF0C4CF4DF
:1005C000E06C1CEA11541DBF1CEA135594EA0C0F91
:1005D00095EA0C0F00F0DEF82C4481EA030621EACC
:1005E0004C5123EA4C5350EA013518BF52EA033507
:1005F00041F4801143F4801338D0A0FB02CE4FF0B9
:100600000005E1FB02E506F00042E0FB03E54FF0E8
:100610000006E1FB03569CF0000F18BF4EF0010EE0
:10062000A4F1FF04B6F5007F64F5407404D25FEADC
:100630004E0E6D4146EB060642EAC62141EA55518F
:100640004FEAC52040EA5E504FEACE2EB4F1FD0CD1
:1006500088BFBCF5E06F1ED8BEF1004F08BF5FEA4F
:10066000500E50F1000041EB045170BD06F0004601
:1006700046EA010140EA020081EA0301B4EB5C04AE
:10068000C2BFD4EB0C0541EA045170BD41F48011A6
:100690004FF0000E013C00F3AB8014F1360FDEBFCB
:1006A000002001F0004170BDC4F10004203C35DAA7
:1006B0000C341BDC04F11404C4F1200500FA05F32A
:1006C00020FA04F001FA05F240EA020001F00042CB
:1006D00021F0004110EBD37021FA04F642EB060141
:1006E0005EEA430E08BF20EAD37070BDC4F10C046B
:1006F000C4F1200500FA04F320FA05F001FA04F22F
:1007000040EA020001F0004110EBD37041F100011A
:100710005EEA430E08BF20EAD37070BDC4F1200525
:1007200000FA05F24EEA020E20FA04F301FA05F28D
:1007300043EA020321FA04F001F0004121FA04F235
:1007400020EA020000EBD3705EEA430E08BF20EA05
:10075000D37070BD94F0000F0FD101F0004640003F
:1007600041EB010111F4801F08BF013CF7D041EAC1
:10077000060195F0000F18BF704703F000465200C5
:1007800043EB030313F4801F08BF013DF7D043EA96
:100790000603704794EA0C0F0CEA135518BF95EA4C
:1007A0000C0F0CD050EA410618BF52EA4306D1D1D3
:1007B00081EA030101F000414FF0000070BD50EAF2
:1007C000410606BF1046194652EA430619D094EA7C
:1007D0000C0F02D150EA013613D195EA0C0F05D166
:1007E00052EA03361CBF104619460AD181EA0301BA
:1007F00001F0004141F0FE4141F470014FF0000072
:1008000070BD41F0FE4141F4780170BD70B54FF00C
:10081000FF0C4CF4E06C1CEA11541DBF1CEA13558C
:1008200094EA0C0F95EA0C0F00F0A7F8A4EB05046E
:1008300081EA030E52EA03354FEA013100F0888065
:100840004FEA03334FF0805545EA131343EA12632E
:100850004FEA022245EA111545EA10654FEA0026E3
:100860000EF000419D4208BF964244F1FD0404F59C
:10087000407402D25B084FEA3202B61A65EB0305F8
:100880005B084FEA32024FF480104FF4002CB6EBB5
:10089000020E75EB030E22BFB61A754640EA0C0035
:1008A0005B084FEA3202B6EB020E75EB030E22BF75
:1008B000B61A754640EA5C005B084FEA3202B6EBB6
:1008C000020E75EB030E22BFB61A754640EA9C0075
:1008D0005B084FEA3202B6EB020E75EB030E22BF45
:1008E000B61A754640EADC0055EA060E18D04FEA03
:1008F000051545EA16754FEA06164FEAC30343EAA3
:1009000052734FEAC2025FEA1C1CC0D111F4801F6F
:100910000BD141EA00014FF000004FF0004CB6E768
:1009200011F4801F04BF01430020B4F1FD0C88BF07
:10093000BCF5E06F3FF6AFAEB5EB030C04BFB6EB12
:10094000020C5FEA500C50F1000041EB045170BD05
:100950000EF0004E4EEA113114EB5C04C2BFD4EB32
:100960000C0541EA045170BD41F480114FF0000EB6
:10097000013C90E645EA060E8DE60CEA135594EA32
:100980000C0F08BF95EA0C0F3FF43BAF94EA0C0F35
:100990000AD150EA01347FF434AF95EA0C0F7FF4AA
:1009A00025AF104619462CE795EA0C0F06D152EAFE
:1009B00003353FF4FDAE1046194622E750EA4106E2
:1009C00018BF52EA43067FF4C5AE50EA41047FF4F3
:1009D0000DAF52EA43057FF4EBAE12E74FF0FF3C58
:1009E00006E000BF4FF0010C02E000BF4FF0010C29
:1009F0004DF804CD4FEA410C7FEA6C5C4FEA430CA2
:100A000018BF7FEA6C5C1BD001B050EA410C0CBFF0
:100A100052EA430C91EA030F02BF90EA020F002052
:100A2000704710F1000F91EA030F58BF994208BFB9
:100A300090422CBFD8176FEAE37040F00100704776
:100A40004FEA410C7FEA6C5C02D150EA013C07D1CD
:100A50004FEA430C7FEA6C5CD6D152EA033CD3D018
:100A60005DF8040B704700BF8446104662468C4612
:100A70001946634600E000BF01B5FFF7B7FF002845
:100A800048BF10F1000F01BD4DF808EDFFF7F4FF6E
:100A90000CBF012000205DF808FB00BF4DF808EDF9
:100AA000FFF7EAFF34BF012000205DF808FB00BF1C
:100AB0004DF808EDFFF7E0FF94BF012000205DF83E
:100AC00008FB00BF4DF808EDFFF7CEFF94BF0120F3
:100AD00000205DF808FB00BF4DF808EDFFF7C4FFEC
:100AE00034BF012000205DF808FB00BF4FEA410C35
:100AF0007FEA6C5C02D150EA013C0AD14FEA430C18
:100B00007FEA6C5C02D152EA033C02D14FF0000054
:100B100070474FF0010070474FEA410212F5001292
:100B200015D211D56FF47873B3EB625212D94FEA34
:100B3000C12343F0004343EA505311F0004F23FA1E
:100B400002F018BF404270474FF00000704750EA73
:100B5000013005D111F0004008BF6FF00040704730
:100B60004FF00000704700BF4A0011D212F500128A
:100B700011D20DD56FF47873B3EB62520ED44FEAF5
:100B8000C12343F0004343EA505323FA02F0704775
:100B90004FF00000704750EA013002D14FF0FF30B3
:100BA00070474FF0000070474FEA4102B2F1E04356
:100BB00024BFB3F5001CDCF1FE5C0DD901F0004C44
:100BC0004FEAC0024CEA5070B2F1004F40EB830094
:100BD00008BF20F00100704711F0804F21D113F1C0
:100BE0003872BCBF01F00040704741F480114FEAF9
:100BF0005252C2F11802C2F1200C10FA0CF320FA82
:100C000002F018BF40F001004FEAC1234FEAD3239E
:100C100003FA0CFC40EA0C0023FA02F34FEA430308
:100C2000CCE77FEA625307D150EA01331EBF4FF091
:100C3000FE4040F44000704701F0004040F0FE40AC
:100C400040F40000704700BF80F0004002E000BFA9
:100C500081F0004142001FBF5FEA410392EA030FA7
:100C60007FEA226C7FEA236C6AD04FEA1262D2EBF1
:100C70001363C1BFD218414048404140B8BF5B42F6
:100C8000192B88BF704710F0004F40F4000020F08F
:100C90007F4018BF404211F0004F41F4000121F0A5
:100CA0007F4118BF494292EA030F3FD0A2F10102EF
:100CB00041FA03FC10EB0C00C3F1200301FA03F12D
:100CC00000F0004302D5494260EB4000B0F5000F50
:100CD00013D3B0F1807F06D340084FEA310102F10F
:100CE0000102FE2A51D2B1F1004F40EBC25008BFC1
:100CF00020F0010040EA03007047490040EB00008B
:100D0000013A28BFB0F5000FEDD2B0FA80FCACF18B
:100D1000080CB2EB0C0200FA0CF0AABF00EBC250B8
:100D200052421843BCBFD0401843704792F0000FA6
:100D300081F4000106BF80F400000132013BB5E7F9
:100D40004FEA41037FEA226C18BF7FEA236C21D06F
:100D500092EA030F04D092F0000F08BF08467047D4
:100D600090EA010F1CBF0020704712F07F4F04D1A2
:100D7000400028BF40F00040704712F100723CBFB5
:100D800000F50000704700F0004343F0FE4040F4DF
:100D9000000070477FEA226216BF08467FEA23639D
:100DA0000146420206BF5FEA412390EA010F40F488
:100DB000800070474FF0000304E000BF10F00043D4
:100DC00048BF40425FEA000C08BF704743F09643BB
:100DD00001464FF000001CE050EA010208BF7047D6
:100DE0004FF000030AE000BF50EA010208BF70475D
:100DF00011F0004302D5404261EB41015FEA010C72
:100E000002BF84460146002043F0B64308BFA3F169
:100E10008053A3F50003BCFA8CF2083AA3EBC2534B
:100E200010DB01FA02FC634400FA02FCC2F120026A
:100E3000BCF1004F20FA02F243EB020008BF20F0A1
:100E40000100704702F1200201FA02FCC2F1200207
:100E500050EA4C0021FA02F243EB020008BF20EAFC
:100E6000DC7070477BB972B90029BEBF00204FF01B
:100E7000004106E008BF00281CBF6FF000414FF0A2
:100E8000FF3000F007BAADF1080C6DE904CE00297F
:100E900009DB002B1ADB00F095F8DDF804E0DDE952
:100EA000022304B07047404261EB4101002B1BDB81
:100EB00000F088F8DDF804E0DDE9022304B04042E8
:100EC00061EB4101524263EB43037047524263EBD3
:100ED000430300F077F8DDF804E0DDE9022304B015
:100EE000404261EB41017047524263EB430300F023
:100EF00069F8DDF804E0DDE9022304B0524263EB57
:100F00004303704753B94AB9002908BF00281CBFE2
:100F10004FF0FF314FF0FF3000F0BCB9ADF1080CDD
:100F20006DE904CE00F04EF8DDF804E0DDE90223BF
:100F300004B07047430803F05533C01A830803F028
:100F4000333300F03330184400EB101000F00F3052
:100F500000EB002000EB0040000E704707EE900A07
:100F6000F5EEC07AF1EE10FA01D400F00BB8F1EE14
:100F7000677A08B517EE900A00F004F8404261EB7A
:100F8000410108BDD0B5FFF7BFFA0C4B0022064661
:100F90000F46FFF711FBFFF7E7FD0446FFF792FA54
:100FA000074B0022FFF708FB02460B463046394646
:100FB000FFF74AF9FFF7D8FD2146D0BD0000F03D0C
:100FC0000000F0412DE9F047089D04468E46002BB5
:100FD0004DD18A42944669D9B2FA82F252B101FAED
:100FE00002F3C2F1200120FA01F10CFA02FC41EAFD
:100FF000030E94404FEA1C48210CBEFBF8F61FFA82
:101000008CF708FB16E341EA034306FB07F199421C
:101010000AD91CEB030306F1FF3080F01F819942CF
:1010200040F21C81023E63445B1AA4B2B3FBF8F0A9
:1010300008FB103344EA034400FB07F7A7420AD930
:101040001CEB040400F1FF3380F00A81A74240F258
:1010500007816444023840EA0640E41B00261DB1C3
:10106000D4400023C5E900433146BDE8F0878B42F8
:1010700009D9002D00F0EF800026C5E900013046B7
:101080003146BDE8F087B3FA83F6002E4AD18B4291
:1010900002D3824200F2F980841A61EB030301203B
:1010A0009E46002DE0D0C5E9004EDDE702B9FFDE27
:1010B000B2FA82F2002A40F09280A1EB0C014FEAD2
:1010C0001C471FFA8CFE0126200CB1FBF7F307FB2F
:1010D000131140EA01410EFB03F0884208D91CEBD2
:1010E000010103F1FF3802D2884200F2CB8043466F
:1010F000091AA4B2B1FBF7F007FB101144EA01444E
:101100000EFB00FEA64508D91CEB040400F1FF31DC
:1011100002D2A64500F2BB800846A4EB0E0440EACA
:1011200003409CE7C6F12007B34022FA07FC4CEAD3
:10113000030C20FA07F401FA06F31C43F9404FEAC6
:101140001C4900FA06F3B1FBF9F8200C1FFA8CFEDB
:1011500009FB181140EA014108FB0EF0884202FA2F
:1011600006F20BD91CEB010108F1FF3A80F08880F0
:10117000884240F28580A8F102086144091AA4B2AD
:10118000B1FBF9F009FB101144EA014100FB0EFE2E
:101190008E4508D91CEB010100F1FF346CD28E455D
:1011A0006AD90238614440EA0840A0FB0294A1EBEE
:1011B0000E01A142C846A64656D353D05DB1B3EB4B
:1011C000080261EB0E0101FA07F722FA06F3F1407B
:1011D0001F43C5E9007100263146BDE8F087C2F122
:1011E0002003D8400CFA02FC21FA03F3914001439A
:1011F0004FEA1C471FFA8CFEB3FBF7F007FB1036D3
:101200000B0C43EA064300FB0EF69E4204FA02F47E
:1012100008D91CEB030300F1FF382FD29E422DD9D1
:10122000023863449B1B89B2B3FBF7F607FB163306
:1012300041EA034106FB0EF38B4208D91CEB010186
:1012400006F1FF3816D28B4214D9023E6144C91A06
:1012500046EA004638E72E46284605E70646E3E616
:101260001846F8E64B45A9D2B9EB020864EB0C0E20
:101270000138A3E74646EAE7204694E74046D1E72F
:10128000D0467BE7023B614432E7304609E76444DD
:10129000023842E7704700BF02E000F000F8FEE7C6
:1012A00072B6374880F30888364880F30988364894
:1012B0003649086040F20000CCF200004EF634716E
:1012C000CEF200010860BFF34F8FBFF36F8F40F283
:1012D0000000C0F2F0004EF68851CEF20001086026
:1012E000BFF34F8FBFF36F8F4FF00000E1EE100A96
:1012F0004EF63C71CEF200010860062080F314889F
:10130000BFF36F8FBAF0D6FEB9F0B4FE4FF0553090
:101310001F491B4A91423CBF41F8040BFAE71D49A3
:10132000184A91423CBF41F8040BFAE71A491B4A9C
:101330001B4B9A423EBF51F8040B42F8040BF8E7EE
:1013400000201849184A91423CBF41F8040BFAE7C3
:10135000BAF0B4FEB9F0E2FE144C154DAC4203DA1B
:1013600054F8041B8847F9E705F054F9114C124D65
:10137000AC4203DA54F8041B8847F9E7BAF09CBE84
:1013800000060020002200200000010808ED00E017
:10139000000000200006002090630F0800220020BB
:1013A000482C0020482C0020006C0120E00101089E
:1013B0003802010838020108380201082DE9F04F0F
:1013C0002DED108AC1F80CD0C3689D46BDEC108A83
:1013D000BDE8F08F002383F311882846A047002042
:1013E000B9F0CEFBFEE7B9F025FA00DFFEE700001A
:1013F00001F0FF01102A2BDB10F0070F08D010F8C6
:10140000013B013A8B422DD010F0070F42B3F6D1C9
:10141000F0B441EA012141EA014122F007047FF0E2
:1014200000070023F0E80256083C85EA010586EA39
:10143000010685FA47F5A3FA87F586FA47F6A5FA75
:1014400087F68EB9EED1F0BC01F0FF0102F0070281
:1014500032B110F8013B013A83EA010313B1F8D12C
:101460000020704701387047002D06BF354603380D
:10147000073815F0010F07D1013015F4807F02BF46
:10148000013015F4C03F0130F0BC0138704700BF97
:1014900010F8012B11F8013B012A28BF9A42F7D01E
:1014A000D01A7047034613F8012B002AFBD1181AF3
:1014B0000138704738B50022002304460D46FFF777
:1014C000EDFA28B920462946BDE8384000F00AB8B0
:1014D000204605F1004100F005F8404261EB410172
:1014E00038BD00BFD0B50C4B002206460F46FFF7B3
:1014F00063F8FFF739FB0446FEF7E4FF074B0022D1
:10150000FFF75AF802460B4630463946FEF79CFE76
:10151000FFF72AFB2146D0BD0000F03D0000F0415E
:10152000036800221B68184710B503685B6804460F
:10153000984708B194F84D0010BD00002DE9F04126
:10154000DFF8DC8108F5C04490B094F97C3306469E
:101550000F46002B00F0C78094F8C45335B9634A96
:1015600083F0C0FC284610B0BDE8F081B8F8A43084
:1015700053B958F0A1FC92224FF4801158F054FC5A
:10158000B8F8A230A8F8A430B8F8A430632B05D876
:10159000574A3946304683F0A5FC002500212E220B
:1015A00004A80391BEF0A4FCD4F8DC02036803AAEB
:1015B0001B6832219847804630B94E4A03AB394602
:1015C000304683F08FFC4546B4F8B832A3F57A7301
:1015D0009BB241F65832934206D9474B3A462021F6
:1015E000304683F077FA002594F9EC34002B69DD5E
:1015F00094F9A434002B59DD404B3A462021304663
:1016000083F068FA00253E49D4F8E802322303AAA1
:101610008EF0FAFB804640B903AB00933A46394B53
:101620002021304683F056FA45463749D4F8E40283
:10163000322303AA8BF012FD804640B903AB00931E
:101640003A46304B2021304683F044FA454620216B
:10165000304683F037FAB8B1D4EDCE7A9FED2B7ACD
:10166000F0EEE77AF4EEC77AF1EE10FA0CD594F9C1
:10167000EC34002B02DD94F850352BB9244A39465E
:10168000304683F02FFC002594F9EC34002B7FF7D3
:1016900069AF94F9A933002B3FF464AF1D4B3A4670
:1016A0002021304683F016FA00255BE794F8508538
:1016B000B8F1000F06D1184B3A462021304683F08E
:1016C00009FA454694F9A434002B9CDD94F8D5849E
:1016D000B8F1000F97D1114B3A462021304683F0E4
:1016E000F9F945468FE701253CE700BFCC430D08DB
:1016F000EE430D0815440D0820440D0832440D0832
:10170000A3440D08A7440D08B9440D080000003497
:10171000BD440D08D7440D0858440D087E440D08FB
:10172000582C002038B5044683F0B0F9114B93F8DB
:101730008814114B1D68EB6A1A68002908BF01461E
:101740001268184690475AF0A7F9EB6A93F89C1074
:1017500059F086F994F83F305BB195F07DFAEB6A69
:10176000D3F8A030C01AB0F5FA6F24BF002384F874
:101770003F3038BD588C0020542C002008B5FFF7AE
:10178000D1FF054B05481B68DB6A93F89C10BDE848
:10179000084011F06DBE00BF542C0020088F0020BF
:1017A00070B50E46054665F0D9FD65F015FD10B91A
:1017B0000124204670BD0A4B93F98633012BF7D1E3
:1017C00065F0CCFD437A002BF2D165F0C7FD847A39
:1017D000002CEDD1034A3146284683F083FBE8E72D
:1017E000584C0020F0440D08034BD3F8EC330BB9F0
:1017F00083F002B901207047584C00202DE9F045D4
:101800002DED028BC47F91B006460F468CB990F93E
:101810000430002B00F0F080784B1D68A86A036844
:101820005B6B9847044650B9754A3946304683F099
:1018300059FB204611B0BDEC028BBDE8F085B368C2
:101840004BB933685B6B3946304611B0BDEC028B47
:10185000BDE8F0451847E86AFFF766FE0446002831
:10186000E7D13946304684F025FADFF8C4810546D1
:101870003946304683F05EFBD8EDD07AB0EE088A68
:10188000F4EEC87AF1EE10FA00F1A3800540ECB254
:10189000D8EDD17AF4EEC87AF1EE10FA0BD517EE46
:1018A000900AFEF731FE574ACDE90001394630462D
:1018B00083F018FB0024D8EDD27AB8EE087AF4EE63
:1018C000C77AF1EE10FA0BDD17EE900AFEF71CFE58
:1018D0004D4ACDE900013946304683F003FB002430
:1018E000B8F92C33042B07DC052200923946474A0D
:1018F000304683F0F7FA0024D8F8880D65F090FDA3
:1019000080B198F986336BB1D8F8883DB8F988234F
:10191000B3F910309A4205DA3D4A3946304683F031
:10192000E1FA002439463046FFF73AFFDFF804A118
:10193000054639463046FFF701FE9AF8C930002BBC
:1019400053D1254000EA050432484FF4806104F089
:10195000D5FA78B1D8F8883DB3F90E30A3F2E24257
:1019600092B2B2F5FA7F05D92B4A3946304683F058
:10197000B9FA00249AF81C3753B128483AF0DEFB34
:10198000054628B9264A3946304683F0ABFA2C463C
:1019900000212E2204A80DF10C080391BEF0A8FA34
:1019A000DAF8B4004246322109F00CFF054600285F
:1019B0007FF43FAFDAF8B40003689B689847194A90
:1019C000CDF8008003463946304683F08BFA2C462A
:1019D0002FE717EE900AFEF797FD134ACDE90001B5
:1019E0003946304683F07EFA52E7104A394630468F
:1019F00083F078FA0024A7E701241AE7542C00208A
:101A000000450D0837450D0859450D087B450D0863
:101A10009A450D08582C0020D5450D086C830020F0
:101A2000FD450D08E80E0E0817450D08C0450D08C8
:101A3000584C0020587C002070B505460E46FFF734
:101A4000AFFE31460446284683F0DAFF2040C0B29C
:101A500070BD0000F0B591B005460E4683F006FB60
:101A60000446D8B11021284683F02CF8B0B10021EB
:101A70002E2204A803AF0391BEF03AFA1BF044FDF6
:101A800032233A4601211AF0F3FF044630B9054BE0
:101A9000009732461021284683F01CF8204611B0EA
:101AA000F0BD00BF14460D0837B5836801910546A7
:101AB000B3B10C4B1B68D86AFFF736FD0199044699
:101AC00040B164F01BF9084A04215EF039FE20465B
:101AD00003B030BD284603B0BDE8304083F092BD6E
:101AE0000124F4E7542C002020460D0870B504466C
:101AF0000E4684F09FF90546F0B1104806F0BAFC96
:101B000038B10F490F481BF00BF910B10B4804F026
:101B1000C9F92046FFF732FE01230B4884F83F3015
:101B20000AF0CCFE26B995F097F8084BC3F83806B2
:101B30000749204684F08EF8284670BD582C0020B6
:101B4000EC8D0020783F0020987B0020587C0020FE
:101B500044460D08F8B506460C4615464AB92A46CD
:101B60002146304684F026FA054660B9002528460D
:101B7000F8BD232901D00129F1D81A4809F0DCF871
:101B80000028ECD0F2E7184CD4F8B420A4F52F7359
:101B90009A4203D004F214703AF006FFD4F8B4006D
:101BA000124F03689B6B9847D7F8003384F8EC0614
:101BB000012B07D165F0D2FB542166F07DFC08B9FA
:101BC000C7F800033046FFF7D9FD4FF0FF33C4F8E4
:101BD000E83007490023304684F8643684F03AF848
:101BE000C5E700BF582C0020587C0020588C0020EE
:101BF00054460D082DE9F04F2DED028BDFF84C9186
:101C000093B00746884683F009F899F95E43054684
:101C1000CCB94748BD213AF05DFE38B1454B42464C
:101C20004FF48041384682F055FF25464048BC219C
:101C30003AF050FE38B1404B42464FF480413846AE
:101C400082F048FF00253D4C94F8C433002B68D047
:101C5000A4F580531C22B3F848370393002104A84D
:101C6000BEF046F906A822F021FDA4F6EC0AA4F580
:101C7000C04B0126A4F54754039B9E4251D20DA8A8
:101C800022F014FD0BAA3146504638F04FFA0028D6
:101C900047D0BDF82E10584608F004F980B3BDF8BF
:101CA0001230102B2CD106A90DA823F0D9F89FEDE6
:101CB000247A2448B0EE408A94ED000AB4EEC70AB4
:101CC000F1EE10FAB8BF99EDCC0A20EE000A0FF041
:101CD00033FDF6EE087A60EE277AB4EEE78AF1EE8D
:101CE00010FA0DD517EE900AFEF70EFC164BCDE953
:101CF000000142464FF48041384682F0EBFE002559
:101D00000DF12C0CBCE80F000DF1100EAEE80F0029
:101D10009CE80700AEE8030001368EF80020B6B25A
:101D2000AAE7284613B0BDEC028BBDE8F08F00BFD8
:101D30006C83002068460D0894460D08588C0020DE
:101D400000000034088F0020C7460D08584C0020C2
:101D50000020704700207047014804F015B800BF0C
:101D6000582C002070B52DED048B82B0044601A9DB
:101D700000F599501BF08CF9002800F0D98004F58B
:101D8000AD4595ED007ADDED017AB4EEE77AF1EE3E
:101D900010FA07D504F5C440683082F081FE08B11E
:101DA000019B2B6004F5005595EDDE7AB5F92C33D7
:101DB000052BB8BF052307EE903AB5F92E33B8EEE0
:101DC000E79A07EE903AF8EEE77AF6EE008A77EEB9
:101DD000A77A04F5C54687EE278A30363046B4EE3A
:101DE000688AF1EE10FAC8BFB0EE688A11F072FC92
:101DF000002800F08B80D5EDCD7A9FED5F7AF4EE70
:101E0000C77AF1EE10FAB8BFDFED5C7A95EDDE7AB5
:101E1000B8BF69EE277A87EE271A27209FED587AF8
:101E2000DDED017AF4EEC77AF1EE10FACABF95ED56
:101E3000DE7AB0EE410A87EE270AF0EE480A34F067
:101E400035FA3046B0EE408A10F06CFF38B904F530
:101E5000C04393F8C423D2B393F8F133BBB304F572
:101E6000C440683082F01CFE88B329EE282A9DED1C
:101E7000011AB4EEC21AF1EE10FA28D5D5EDDE0A39
:101E8000DFED401A9FED400AC0EE820A34F040F9BF
:101E900004F541500C30B4EE408AF0EE408AF1EE89
:101EA00010FA48BFF0EE488A84F030FA04F5465044
:101EB000283004F5515484F029FAD4ED087A9FEDC6
:101EC000337A67EE877AB0EE688AC4ED087A3048D4
:101ED0001AF05EF8A0B92F4C4021204604F00EF80D
:101EE00070B104F5A044D4F8F036012B08D1F7EE18
:101EF000007AB4EEE78AF1EE10FA58BFB0EE678AC6
:101F0000B0EE480A02B0BDEC048B70BDDFED1B7A69
:101F100095EDDE7A69EE277A87EE271AF0EE007AE1
:101F2000B4EE671AF1EE10FA48BFB0EE671A74E724
:101F300004F5C440683082F0B3FDB7EE008A002893
:101F4000C5D0462066F038FEB4EEC80A9FED127A7E
:101F50009FED121ADFED120AF1EE10FAD8BFB0EEC3
:101F6000480AC7EE007A4220B1EEE70A34F09EF943
:101F7000B0EE408AABE700BF000000343333333F9C
:101F800017B7D138000000006F12833A52B87E3F75
:101F9000783F0020582C0020000034428FC2D53FEB
:101FA0009A99193FF8B5044665F0D8F90368DB68DB
:101FB0009847054610B900252846F8BD04F5A04607
:101FC000204608F055FDD6F8B42004F59D431C3397
:101FD0009A42074605D104F5C04393F88434022B96
:101FE000E9D804F5C540303011F0C4F80028E2D13A
:101FF000D6F8B40003689B6B984758B996F8C83078
:10200000002BD9D004F5005494F99053023D18BF29
:102010000125D1E7084BD3F8B40003685B6B984700
:102020000028EBD004F5005494F9C933002BC2D03A
:10203000032BC0D03D46BFE7587C002010B51048A8
:10204000FFF7B0FFD0B10F4811F0CCF9B0B10E4C92
:10205000042066F0B1FDD4F8800D65F02FFC04205B
:1020600066F096FD132066F0A7FDD4F8840D65F0A8
:1020700025FCBDE81040132066F08ABD10BD00BFEE
:10208000582C0020088F0020584C002070B52DEDF2
:10209000028B0446FFF786FF002800F0B08004F5AD
:1020A000A04504F59842D5F8B4307832934200F058
:1020B000A68004F599423832934200F0A08004F5DE
:1020C0009A422432934200F09A8004F599425832A1
:1020D000934200F0948004F599427832934200F0E4
:1020E0008E8004F59C421832934200F0888004F5FB
:1020F0009C423832934200F0828004F59C42583270
:1021000093427CD004F59C427C32934277D004F514
:102110009D424032934272D004F5C540303011F0F8
:1021200061F900286BD0D5F8B42004F598435833F2
:102130009A4264D004F50056F6EE008AD6F8800D77
:1021400065F078FAB4EEE80AF1EE10FA43DDB0EE8D
:10215000087AFFEE007AE0EE077AB0EE670AD6F86A
:10216000982DD5F8043707EE902AB8EEE77A07EEF7
:10217000903AF8EEE77A5142E7EE007AFDEEE77A20
:1021800017EE900AC5F8040734F030F9C5F80407D3
:102190003A4890F9C933042B31D0D5F8B42004F56E
:1021A0009B4314339A4222D0D6F8840D65F042FA4C
:1021B000B4EEE80AF1EE10FAB0EE408A22DCFEEE50
:1021C000007AB4EEE70AF1EE10FA23D5B0EE087A01
:1021D000F7EE007A1AE0FEEE007AB4EEE70AF1EECE
:1021E00010FABCD5B0EE087AF7EE007AB3E74FF4F8
:1021F0008051A0F5005003F081FE0028D4D0BDEC42
:10220000028B70BDB0EE087AFFEE007AE8EE077A36
:10221000B0EE678A204607F06DFF08B1B1EE488A3C
